{
  "_format": "hh-sol-artifact-1",
  "contractName": "SimpleToken",
  "sourceName": "contracts/Tokens/SimpleTokens/SimpleToken.sol",
  "abi": [
    {
      "inputs": [
        {
          "internalType": "string",
          "name": "_name",
          "type": "string"
        },
        {
          "internalType": "string",
          "name": "_symbol",
          "type": "string"
        },
        {
          "internalType": "uint8",
          "name": "__decimals",
          "type": "uint8"
        },
        {
          "internalType": "uint256",
          "name": "_totalSupply",
          "type": "uint256"
        }
      ],
      "stateMutability": "payable",
      "type": "constructor"
    },
    {
      "anonymous": false,
      "inputs": [
        {
          "indexed": true,
          "internalType": "address",
          "name": "owner",
          "type": "address"
        },
        {
          "indexed": true,
          "internalType": "address",
          "name": "spender",
          "type": "address"
        },
        {
          "indexed": false,
          "internalType": "uint256",
          "name": "value",
          "type": "uint256"
        }
      ],
      "name": "Approval",
      "type": "event"
    },
    {
      "anonymous": false,
      "inputs": [
        {
          "indexed": true,
          "internalType": "address",
          "name": "previousOwner",
          "type": "address"
        },
        {
          "indexed": true,
          "internalType": "address",
          "name": "newOwner",
          "type": "address"
        }
      ],
      "name": "OwnershipTransferred",
      "type": "event"
    },
    {
      "anonymous": false,
      "inputs": [
        {
          "indexed": true,
          "internalType": "address",
          "name": "from",
          "type": "address"
        },
        {
          "indexed": true,
          "internalType": "address",
          "name": "to",
          "type": "address"
        },
        {
          "indexed": false,
          "internalType": "uint256",
          "name": "value",
          "type": "uint256"
        }
      ],
      "name": "Transfer",
      "type": "event"
    },
    {
      "inputs": [
        {
          "internalType": "address",
          "name": "owner",
          "type": "address"
        },
        {
          "internalType": "address",
          "name": "spender",
          "type": "address"
        }
      ],
      "name": "allowance",
      "outputs": [
        {
          "internalType": "uint256",
          "name": "",
          "type": "uint256"
        }
      ],
      "stateMutability": "view",
      "type": "function"
    },
    {
      "inputs": [
        {
          "internalType": "address",
          "name": "spender",
          "type": "address"
        },
        {
          "internalType": "uint256",
          "name": "amount",
          "type": "uint256"
        }
      ],
      "name": "approve",
      "outputs": [
        {
          "internalType": "bool",
          "name": "",
          "type": "bool"
        }
      ],
      "stateMutability": "nonpayable",
      "type": "function"
    },
    {
      "inputs": [
        {
          "internalType": "address",
          "name": "account",
          "type": "address"
        }
      ],
      "name": "balanceOf",
      "outputs": [
        {
          "internalType": "uint256",
          "name": "",
          "type": "uint256"
        }
      ],
      "stateMutability": "view",
      "type": "function"
    },
    {
      "inputs": [],
      "name": "decimals",
      "outputs": [
        {
          "internalType": "uint8",
          "name": "",
          "type": "uint8"
        }
      ],
      "stateMutability": "view",
      "type": "function"
    },
    {
      "inputs": [
        {
          "internalType": "address",
          "name": "spender",
          "type": "address"
        },
        {
          "internalType": "uint256",
          "name": "subtractedValue",
          "type": "uint256"
        }
      ],
      "name": "decreaseAllowance",
      "outputs": [
        {
          "internalType": "bool",
          "name": "",
          "type": "bool"
        }
      ],
      "stateMutability": "nonpayable",
      "type": "function"
    },
    {
      "inputs": [],
      "name": "feeContract",
      "outputs": [
        {
          "internalType": "contract IFee",
          "name": "",
          "type": "address"
        }
      ],
      "stateMutability": "view",
      "type": "function"
    },
    {
      "inputs": [
        {
          "internalType": "address",
          "name": "spender",
          "type": "address"
        },
        {
          "internalType": "uint256",
          "name": "addedValue",
          "type": "uint256"
        }
      ],
      "name": "increaseAllowance",
      "outputs": [
        {
          "internalType": "bool",
          "name": "",
          "type": "bool"
        }
      ],
      "stateMutability": "nonpayable",
      "type": "function"
    },
    {
      "inputs": [],
      "name": "name",
      "outputs": [
        {
          "internalType": "string",
          "name": "",
          "type": "string"
        }
      ],
      "stateMutability": "view",
      "type": "function"
    },
    {
      "inputs": [],
      "name": "owner",
      "outputs": [
        {
          "internalType": "address",
          "name": "",
          "type": "address"
        }
      ],
      "stateMutability": "view",
      "type": "function"
    },
    {
      "inputs": [],
      "name": "renounceOwnership",
      "outputs": [],
      "stateMutability": "nonpayable",
      "type": "function"
    },
    {
      "inputs": [],
      "name": "symbol",
      "outputs": [
        {
          "internalType": "string",
          "name": "",
          "type": "string"
        }
      ],
      "stateMutability": "view",
      "type": "function"
    },
    {
      "inputs": [],
      "name": "totalSupply",
      "outputs": [
        {
          "internalType": "uint256",
          "name": "",
          "type": "uint256"
        }
      ],
      "stateMutability": "view",
      "type": "function"
    },
    {
      "inputs": [
        {
          "internalType": "address",
          "name": "to",
          "type": "address"
        },
        {
          "internalType": "uint256",
          "name": "amount",
          "type": "uint256"
        }
      ],
      "name": "transfer",
      "outputs": [
        {
          "internalType": "bool",
          "name": "",
          "type": "bool"
        }
      ],
      "stateMutability": "nonpayable",
      "type": "function"
    },
    {
      "inputs": [
        {
          "internalType": "address",
          "name": "from",
          "type": "address"
        },
        {
          "internalType": "address",
          "name": "to",
          "type": "address"
        },
        {
          "internalType": "uint256",
          "name": "amount",
          "type": "uint256"
        }
      ],
      "name": "transferFrom",
      "outputs": [
        {
          "internalType": "bool",
          "name": "",
          "type": "bool"
        }
      ],
      "stateMutability": "nonpayable",
      "type": "function"
    },
    {
      "inputs": [
        {
          "internalType": "address",
          "name": "newOwner",
          "type": "address"
        }
      ],
      "name": "transferOwnership",
      "outputs": [],
      "stateMutability": "nonpayable",
      "type": "function"
    },
    {
      "inputs": [],
      "name": "withdrawETH",
      "outputs": [],
      "stateMutability": "nonpayable",
      "type": "function"
    },
    {
      "inputs": [
        {
          "internalType": "address",
          "name": "token",
          "type": "address"
        }
      ],
      "name": "withdrawToken",
      "outputs": [],
      "stateMutability": "nonpayable",
      "type": "function"
    }
  ],
  "bytecode": "0x6080604052604051620014c6380380620014c6833981016040819052620000269162000303565b838360036200003683826200041c565b5060046200004582826200041c565b505050620000626200005c620000fb60201b60201c565b620000ff565b604051636944d6f160e11b81526000600482015273fd6439aeff9d2389856b7486b9e74a6dacadcdce9063d289ade29034906024016000604051808303818588803b158015620000b157600080fd5b505af1158015620000c6573d6000803e3d6000fd5b50506005805460ff60a01b1916600160a01b60ff88160217905550620000f191503390508262000151565b5050505062000510565b3390565b600580546001600160a01b038381166001600160a01b0319831681179093556040519116919082907f8be0079c531659141344cd1fd0a4f28419497f9722a3daafe3b4186f6b6457e090600090a35050565b6001600160a01b038216620001ac5760405162461bcd60e51b815260206004820152601f60248201527f45524332303a206d696e7420746f20746865207a65726f206164647265737300604482015260640160405180910390fd5b8060026000828254620001c09190620004e8565b90915550506001600160a01b03821660009081526020819052604081208054839290620001ef908490620004e8565b90915550506040518181526001600160a01b038316906000907fddf252ad1be2c89b69c2b068fc378daa952ba7f163c4a11628f55a4df523b3ef9060200160405180910390a35050565b505050565b634e487b7160e01b600052604160045260246000fd5b600082601f8301126200026657600080fd5b81516001600160401b03808211156200028357620002836200023e565b604051601f8301601f19908116603f01168101908282118183101715620002ae57620002ae6200023e565b81604052838152602092508683858801011115620002cb57600080fd5b600091505b83821015620002ef5785820183015181830184015290820190620002d0565b600093810190920192909252949350505050565b600080600080608085870312156200031a57600080fd5b84516001600160401b03808211156200033257600080fd5b620003408883890162000254565b955060208701519150808211156200035757600080fd5b50620003668782880162000254565b935050604085015160ff811681146200037e57600080fd5b6060959095015193969295505050565b600181811c90821680620003a357607f821691505b602082108103620003c457634e487b7160e01b600052602260045260246000fd5b50919050565b601f8211156200023957600081815260208120601f850160051c81016020861015620003f35750805b601f850160051c820191505b818110156200041457828155600101620003ff565b505050505050565b81516001600160401b038111156200043857620004386200023e565b62000450816200044984546200038e565b84620003ca565b602080601f8311600181146200048857600084156200046f5750858301515b600019600386901b1c1916600185901b17855562000414565b600085815260208120601f198616915b82811015620004b95788860151825594840194600190910190840162000498565b5085821015620004d85787850151600019600388901b60f8161c191681555b5050505050600190811b01905550565b808201808211156200050a57634e487b7160e01b600052601160045260246000fd5b92915050565b610fa680620005206000396000f3fe608060405234801561001057600080fd5b506004361061010b5760003560e01c8063715018a6116100a2578063a457c2d711610071578063a457c2d714610236578063a9059cbb14610249578063dd62ed3e1461025c578063e086e5ec14610295578063f2fde38b1461029d57600080fd5b8063715018a614610200578063894760691461020a5780638da5cb5b1461021d57806395d89b411461022e57600080fd5b806323b872dd116100de57806323b872dd14610192578063313ce567146101a557806339509351146101c457806370a08231146101d757600080fd5b806306e297121461011057806306fdde0314610148578063095ea7b31461015d57806318160ddd14610180575b600080fd5b61012b73fd6439aeff9d2389856b7486b9e74a6dacadcdce81565b6040516001600160a01b0390911681526020015b60405180910390f35b6101506102b0565b60405161013f9190610d86565b61017061016b366004610dd5565b610342565b604051901515815260200161013f565b6002545b60405190815260200161013f565b6101706101a0366004610dff565b61035c565b600554600160a01b900460ff1660405160ff909116815260200161013f565b6101706101d2366004610dd5565b610382565b6101846101e5366004610e3b565b6001600160a01b031660009081526020819052604090205490565b6102086103c1565b005b610208610218366004610e3b565b610400565b6005546001600160a01b031661012b565b6101506104bb565b610170610244366004610dd5565b6104ca565b610170610257366004610dd5565b610567565b61018461026a366004610e56565b6001600160a01b03918216600090815260016020908152604080832093909416825291909152205490565b610208610575565b6102086102ab366004610e3b565b61064a565b6060600380546102bf90610e89565b80601f01602080910402602001604051908101604052809291908181526020018280546102eb90610e89565b80156103385780601f1061030d57610100808354040283529160200191610338565b820191906000526020600020905b81548152906001019060200180831161031b57829003601f168201915b5050505050905090565b6000336103508185856106e2565b60019150505b92915050565b60003361036a858285610806565b610375858585610898565b60019150505b9392505050565b3360008181526001602090815260408083206001600160a01b038716845290915281205490919061035090829086906103bc908790610ec3565b6106e2565b6005546001600160a01b031633146103f45760405162461bcd60e51b81526004016103eb90610ee4565b60405180910390fd5b6103fe6000610a66565b565b6005546001600160a01b0316331461042a5760405162461bcd60e51b81526004016103eb90610ee4565b6104b861043f6005546001600160a01b031690565b6040516370a0823160e01b81523060048201526001600160a01b038416906370a0823190602401602060405180830381865afa158015610483573d6000803e3d6000fd5b505050506040513d601f19601f820116820180604052508101906104a79190610f19565b6001600160a01b0384169190610ab8565b50565b6060600480546102bf90610e89565b3360008181526001602090815260408083206001600160a01b03871684529091528120549091908381101561054f5760405162461bcd60e51b815260206004820152602560248201527f45524332303a2064656372656173656420616c6c6f77616e63652062656c6f77604482015264207a65726f60d81b60648201526084016103eb565b61055c82868684036106e2565b506001949350505050565b600033610350818585610898565b6005546001600160a01b0316331461059f5760405162461bcd60e51b81526004016103eb90610ee4565b60006105b36005546001600160a01b031690565b6001600160a01b03164760405160006040518083038185875af1925050503d80600081146105fd576040519150601f19603f3d011682016040523d82523d6000602084013e610602565b606091505b50509050806104b85760405162461bcd60e51b815260206004820152601460248201527311985a5b1959081a5b881dda5d1a191c985dd85b60621b60448201526064016103eb565b6005546001600160a01b031633146106745760405162461bcd60e51b81526004016103eb90610ee4565b6001600160a01b0381166106d95760405162461bcd60e51b815260206004820152602660248201527f4f776e61626c653a206e6577206f776e657220697320746865207a65726f206160448201526564647265737360d01b60648201526084016103eb565b6104b881610a66565b6001600160a01b0383166107445760405162461bcd60e51b8152602060048201526024808201527f45524332303a20617070726f76652066726f6d20746865207a65726f206164646044820152637265737360e01b60648201526084016103eb565b6001600160a01b0382166107a55760405162461bcd60e51b815260206004820152602260248201527f45524332303a20617070726f766520746f20746865207a65726f206164647265604482015261737360f01b60648201526084016103eb565b6001600160a01b0383811660008181526001602090815260408083209487168084529482529182902085905590518481527f8c5be1e5ebec7d5bd14f71427d1e84f3dd0314c0f7b2291e5b200ac8c7c3b925910160405180910390a3505050565b6001600160a01b03838116600090815260016020908152604080832093861683529290522054600019811461089257818110156108855760405162461bcd60e51b815260206004820152601d60248201527f45524332303a20696e73756666696369656e7420616c6c6f77616e636500000060448201526064016103eb565b61089284848484036106e2565b50505050565b6001600160a01b0383166108fc5760405162461bcd60e51b815260206004820152602560248201527f45524332303a207472616e736665722066726f6d20746865207a65726f206164604482015264647265737360d81b60648201526084016103eb565b6001600160a01b03821661095e5760405162461bcd60e51b815260206004820152602360248201527f45524332303a207472616e7366657220746f20746865207a65726f206164647260448201526265737360e81b60648201526084016103eb565b6001600160a01b038316600090815260208190526040902054818110156109d65760405162461bcd60e51b815260206004820152602660248201527f45524332303a207472616e7366657220616d6f756e7420657863656564732062604482015265616c616e636560d01b60648201526084016103eb565b6001600160a01b03808516600090815260208190526040808220858503905591851681529081208054849290610a0d908490610ec3565b92505081905550826001600160a01b0316846001600160a01b03167fddf252ad1be2c89b69c2b068fc378daa952ba7f163c4a11628f55a4df523b3ef84604051610a5991815260200190565b60405180910390a3610892565b600580546001600160a01b038381166001600160a01b0319831681179093556040519116919082907f8be0079c531659141344cd1fd0a4f28419497f9722a3daafe3b4186f6b6457e090600090a35050565b604080516001600160a01b038416602482015260448082018490528251808303909101815260649091019091526020810180516001600160e01b031663a9059cbb60e01b179052610b0a908490610b0f565b505050565b6000610b64826040518060400160405280602081526020017f5361666545524332303a206c6f772d6c6576656c2063616c6c206661696c6564815250856001600160a01b0316610be19092919063ffffffff16565b805190915015610b0a5780806020019051810190610b829190610f32565b610b0a5760405162461bcd60e51b815260206004820152602a60248201527f5361666545524332303a204552433230206f7065726174696f6e20646964206e6044820152691bdd081cdd58d8d9595960b21b60648201526084016103eb565b6060610bf08484600085610bf8565b949350505050565b606082471015610c595760405162461bcd60e51b815260206004820152602660248201527f416464726573733a20696e73756666696369656e742062616c616e636520666f6044820152651c8818d85b1b60d21b60648201526084016103eb565b6001600160a01b0385163b610cb05760405162461bcd60e51b815260206004820152601d60248201527f416464726573733a2063616c6c20746f206e6f6e2d636f6e747261637400000060448201526064016103eb565b600080866001600160a01b03168587604051610ccc9190610f54565b60006040518083038185875af1925050503d8060008114610d09576040519150601f19603f3d011682016040523d82523d6000602084013e610d0e565b606091505b5091509150610d1e828286610d29565b979650505050505050565b60608315610d3857508161037b565b825115610d485782518084602001fd5b8160405162461bcd60e51b81526004016103eb9190610d86565b60005b83811015610d7d578181015183820152602001610d65565b50506000910152565b6020815260008251806020840152610da5816040850160208701610d62565b601f01601f19169190910160400192915050565b80356001600160a01b0381168114610dd057600080fd5b919050565b60008060408385031215610de857600080fd5b610df183610db9565b946020939093013593505050565b600080600060608486031215610e1457600080fd5b610e1d84610db9565b9250610e2b60208501610db9565b9150604084013590509250925092565b600060208284031215610e4d57600080fd5b61037b82610db9565b60008060408385031215610e6957600080fd5b610e7283610db9565b9150610e8060208401610db9565b90509250929050565b600181811c90821680610e9d57607f821691505b602082108103610ebd57634e487b7160e01b600052602260045260246000fd5b50919050565b8082018082111561035657634e487b7160e01b600052601160045260246000fd5b6020808252818101527f4f776e61626c653a2063616c6c6572206973206e6f7420746865206f776e6572604082015260600190565b600060208284031215610f2b57600080fd5b5051919050565b600060208284031215610f4457600080fd5b8151801515811461037b57600080fd5b60008251610f66818460208701610d62565b919091019291505056fea26469706673582212205e32c98c6292154791b3d670c52d98d41d356bf4c37ba5cf7fa9cc5df67b564e64736f6c63430008120033",
  "linkReferences": {},
  "deployedLinkReferences": {}
}